:100000009EC0C0C333C3B6C0B5C0B4C0B3C0B2C0D5
:10001000B1C0B0C075C3AEC0ADC0ACC0ABC08B92F8
:100020004011D00000000000000000000000098B1B
:10003000934011E0000000000000000000000009F3
:100040008951600000000000000000000000000076
:10005000058B905001F0000000000000000000003F
:1000600000098B906001E00000000000000000002B
:100070000000098B9040010000000000000000001B
:10008000000000098941500000000000000000004D
:100090000000000005890CE00000000000000000E6
:1000A0000000000000058B90400C300000000000B4
:1000B000000000000000098812000000000000009D
:1000C0000000000000000004020000000100000227
:1000D000F802000080000000017A02000004000025
:1000E0000001F60200000004000002F5020000001A
:1000F00008000002F10200100000000000EB020006
:10010000080000000000F302008000000000007BF7
:100110000200000200000001F802000001000000DF
:1001200001F90200010000000000FA0200000000D6
:10013000000000FB0001020000000000FA00112492
:100140001FBECFE5D1E0DEBFCDBF10E0A0E6B0E03E
:10015000ECEFF7E002C005900D92A236B107D9F797
:1001600020E0A2E6B0E001C01D92A937B207E1F796
:1001700031D342C345CFB898B998089527E030E00D
:1001800090E0AC01022E02C0559547950A94E2F723
:1001900040FF21C0C09AC19AE3ECF9E03197F1F732
:1001A00000C00000C198E3ECF9E03197F1F700C01E
:1001B00000002150310928F7C39A83EC99E0019798
:1001C000F1F700C00000C398E3ECF9E03197F1F7D4
:1001D00000C000000895C098DECF87B38B6087BB56
:1001E00080E0CCCF81E0CADF2FE78AE196E02150A2
:1001F00080409040E1F700C0000080E0BFCF82E087
:10020000BDDF2FE38DE093E0215080409040E1F787
:1002100000C0000080E0B2CF84E0B0DF2FE38DE0CB
:1002200093E0215080409040E1F700C0000080E062
:10023000A5CF88E0A3DF2FE38DE093E0215080403D
:100240009040E1F700C0000080E098CF80E196CFB9
:1002500080E094CF84E890E056D185ED96E0019758
:10026000F1F700C0000083E790E04DD18091650078
:100270008E7F8093650010926200089580FF14C005
:1002800080916000882371F084E890E03CD1109266
:1002900060002FE18FEB92E0215080409040E1F729
:1002A00000C00000D7DFABCF089582FF08C0809167
:1002B0006300D0DF809165008B7F80936500089597
:1002C00083FF08C080916300C5DF80916500877F50
:1002D000809365000895807619F085E990E013C158
:1002E000089580FF18C081E590E00DD18FEC97E074
:1002F0000197F1F700C0000081E590E004D18FEC98
:1003000097E00197F1F700C0000084E890E0FBD08F
:100310001092620008959ECF80916200882349F078
:1003200083E790E0F0D08091620080958093620036
:10033000089582E690E0F6CFCF93DF93D82FC92FB0
:1003400080E490E0E0D08FEC97E00197F1F700C0F7
:1003500000008D2F9C2FD7D08FEC97E00197F1F7FD
:1003600000C0000080E490E0CED08FEC97E00197D1
:10037000F1F700C00000DF91CF916CCF4DDF8EE12F
:1003800090E0DACF56DF8FE290E0D6CFB99AC19AEB
:100390000895B998C19808958095C1989AE021E28E
:1003A0002A95F1F7000080FF08C0C198869591500A
:1003B000B1F78AE08A95F1F70895C19AF7CFFF92D5
:1003C0000F931F93CF93DF93EC018FEFE5DF85E56C
:1003D000E3DF8E01095F1F4FF80184918D5FDCDF41
:1003E000FE018491D9DFFE0131968491D5DFFE01B3
:1003F00032968491D1DFF12CF8018491F81648F0FF
:10040000FE0138968491DF91CF911F910F91FF905B
:10041000C3CFEF2DF0E03396EC0FFD1F8491BCDFCE
:10042000F394EACFCF93DF93D82FC92F84E391E0E1
:10043000C6DF8D2F9C2FC3DF83EC99E00197F1F786
:1004400000C000008D2F9C2FBADF81E080936300F5
:10045000DF91CF9108958EEF90E0E4CF85EF90E0AB
:10046000E1CF8BE291E0ABDF81EE94E00197F1F711
:1004700000C000008BE291E0A2DF109263000895BB
:10048000CF93DF93D82FC92F809163008111E9DFCB
:1004900084E391E094DF8D2F9C2F91DF83EC99E032
:1004A0000197F1F700C000008D2F9C2F88DF83ECAF
:1004B00099E00197F1F700C000008D2F9C2F7FDF9E
:1004C00083EC99E00197F1F700C000008BE291E026
:1004D000DF91CF9174CF89E191E0D2CF80E191E0BB
:1004E000CFCF83EE90E0CCCF8CEE90E0C9CF81ED02
:1004F00090E0C6CF88EC90E0C3CF8EEF90E0C0CF05
:1005000085EF90E0BDCFCF93DF939C0160E0AC011D
:10051000405F5F4FFA018491681718F0DF91CF9127
:100520000895E62FE695E20FF32FF11DE491F0E038
:10053000862F90E0019681709927880F991F880F68
:10054000991F02C0F595E7958A95E2F783E090E060
:10055000C39ADF01082E02C0B595A7950A94E2F769
:10056000ED01C170DD27A0FF13C0A8EAB1E011972B
:10057000F1F700C00000C398CD2B79F0A4E4B1E0FE
:100580001197F1F700C00000019710F76F5FC2CF1D
:10059000B6EABA95F1F700C0EECFA0E7B2E0119746
:1005A000F1F7F0CFCF93DF9380916900883061F449
:1005B00087EB90E0A8DF8FEC97E00197F1F700C0A0
:1005C000000086EA90E09FDF80916900893061F445
:1005D00086EA90E098DF83EC99E00197F1F700C09C
:1005E000000085E990E08FDF809169008130D9F5C6
:1005F00080916A0082958F70C0916A0090916B0023
:10060000C295C07F92959F70C92B8130B9F4D0916B
:100610006500DC27C0936500D0FF02C08C2F2EDE62
:10062000D2FF02C08C2F41DED3FF02C08C2F48DEE8
:10063000D076C9F08C2FDF91CF914DCE843099F4D4
:10064000C11104C080E0DF91CF914BCEC0FF02C04A
:100650008C2F47DEC1FD60DEC4FD90DEC5FF03C008
:10066000DF91CF918FCEDF91CF9108951F921FB66A
:100670001F9211242F933F934F935F938F939F93D8
:10068000EF93FF9382B7B4990DC012BEFF91EF9123
:100690009F918F915F914F913F912F911F901FBE1E
:1006A0001F90189587518930A0F490916700E091D0
:1006B0006800F0E0E759FF4F808147E050E0491BB8
:1006C000510921E030E001C0220F4A95EAF7822B60
:1006D0008083809167008F5F8093670080916700BF
:1006E0008830A0F210926700809168008F5F80933D
:1006F0006800E0916800F0E0E759FF4F1082C6CF34
:100700001F920F920FB60F9211242F933F934F9386
:100710005F936F937F938F939F93AF93BF93EF9369
:10072000FF9380916800811115C0109267001092AC
:100730006900FF91EF91BF91AF919F918F917F9150
:100740006F915F914F913F912F910F900FBE0F903E
:100750001F90189580916600811106C080916600F7
:100760008F5F80936600E5CF80916900807F09F4F8
:1007700019DF1092680010926700109269001092C1
:100780006600D7CF1F920F920FB60F9211242F93AE
:100790003F934F935F936F937F938F939F93AF9309
:1007A000BF93EF93FF93B19B04C017DD81E080936B
:1007B0006000FF91EF91BF91AF919F918F917F91D9
:1007C0006F915F914F913F912F910F900FBE0F90BE
:1007D0001F90189582E08ABD83E083BF85E789BDBD
:1007E00080E189BF90E69BBF85BB81E085BF88E043
:0C07F00087BBF3DC7894FFCFF894FFCFB8
:0207FC000100FA
:00000001FF
